:1000000002308A00E82A00002630840083170008A6
:1000100003191B280230F800BF30F7006400F70B0B
:100020000E28F80B0C289630F700F70B1528182827
:100030006400800B0A2808000330831688008312AE
:100040008801831609108910091189118312890109
:1000500083168800831288138316880083128815FC
:1000600005300317A600031304200330831688000D
:100070008312881705300317A600031304200830E5
:100080000317A50003308316031388008312881713
:1000900005300317A60003130420033083168800DD
:1000A00083128811000083168800831208158316B6
:1000B00088008312881501300317A600031304205B
:1000C0000330831688008312081101300317A6003D
:1000D0000313042003172508A503003A03198728F2
:1000E00003308316031388008312081501300317A9
:1000F000A60003130420033083168800831208111E
:1001000001300317A600031304206A280317741490
:10011000F4147415F4157416F4167417F413031309
:100120008A110A12C22B03172D080739F7002D0C6C
:10013000F800F80CF80C1F30F80578082E0784003A
:1001400083132F1883170008F800F70AA828F80C63
:10015000F70BA7280313080008300317A700033084
:1001600083160313880083128819B8280310B9284E
:100170000314F40D0318BE288811BF288815033016
:1001800083168800000088008312081503172708CB
:10019000A703003A0319E12AAA132A132708083CE7
:1001A000A73C2608AC002508AB00AD012608AF002F
:1001B0002508AE0003139320781CE12803172A17A3
:1001C00003130317AA122708083C9F3C2608AC001B
:1001D0002508AB00AD012608AF002508AE000313CB
:1001E0009320781CF6280317AA16031303172A1264
:1001F0002708083C973C2608AC002508AB00AD0159
:100200002608AF002508AE0003139320781C0B29A5
:1002100003172A1603130317AA112708083C8F3C5B
:100220002608AC002508AB00AD012608AF00250864
:10023000AE0003139320781C20290317AA1503137B
:1002400003172A112708083C873C2608AC0025081C
:10025000AB00AD012608AF002508AE0003139320C4
:10026000781C352903172A1503130317AA1027082A
:10027000083C7F3C2608AC002508AB00AD012608F1
:10028000AF002508AE0003139320781C4A290317FA
:10029000AA14031303172A102708083C773C2608E2
:1002A000AC002508AB00AD012608AF002508AE0064
:1002B00003139320781C5F2903172A1403130317D1
:1002C00029132708083C6F3C2608AC002508AB0022
:1002D000AD012608AF002508AE0003139320781C5B
:1002E00074290317291703130317A9122708083CB9
:1002F000673C2608AC002508AB00AD012608AF001E
:100300002508AE0003139320781C89290317A9162A
:100310000313031729122708083C5F3C2608AC008A
:100320002508AB00AD012608AF002508AE00031379
:100330009320781C9E290317291603130317A9116C
:100340002708083C573C2608AC002508AB00AD0147
:100350002608AF002508AE0003139320781CB329AC
:100360000317A9150313031729112708083C4F3C4D
:100370002608AC002508AB00AD012608AF00250813
:10038000AE0003139320781CC82903172915031303
:100390000317A9102708083C473C2608AC0025088D
:1003A000AB00AD012608AF002508AE000313932073
:1003B000781CDD290317A914031303172910270834
:1003C000083C3F3C2608AC002508AB00AD012608E0
:1003D000AF002508AE0003139320781CF229031701
:1003E00029140313031728132708083C373C260851
:1003F000AC002508AB00AD012608AF002508AE0013
:1004000003139320781C072A0317281703130317D5
:10041000A8122708083C2F3C2608AC002508AB0092
:10042000AD012608AF002508AE0003139320781C09
:100430001C2A0317A8160313031728122708083CC1
:10044000273C2608AC002508AB00AD012608AF000C
:100450002508AE0003139320781C312A03172816B1
:1004600003130317A8112708083C1F3C2608AC00FB
:100470002508AB00AD012608AF002508AE00031328
:100480009320781C462A0317A81503130317281175
:100490002708083C173C2608AC002508AB00AD0136
:1004A0002608AF002508AE0003139320781C5B2AB2
:1004B0000317281503130317A8102708083C0F3C3F
:1004C0002608AC002508AB00AD012608AF002508C2
:1004D000AE0003139320781C702A0317A81403138B
:1004E000031728102708083C073C2608AC002508FD
:1004F000AB00AD012608AF002508AE000313932022
:10050000781C852A03172814031301300317AC0045
:100510002830AB001830AD00AD080319C82A2B08ED
:10052000F8002C08FA002B08AE002C08AF002E08AB
:10053000840083132F1883170310800D840A800D05
:10054000840A800D0318A82A03130812AA2A031785
:1005500003130816033083168800AE2AAF2A000062
:10056000033088008312881664000230F700F70B0E
:10057000B72ABA2A033083168800831288126400CF
:100580000230F700F70BC22AC52A0317AD038C2AE5
:1005900003308316031388008312081764000230A7
:1005A000F700F70BD12AD42A033083168800831270
:1005B000081364000230F700F70BDC2ADF2AC62894
:1005C00003170330831603138800831208110800F1
:1005D000713083168F000F0803170908C03989008E
:1005E00003131F129F120030031788008312870124
:1005F0008801890183131F308305FF300313A00096
:10060000A100A200A300A400A500A600A700A800C6
:10061000A900AA00AB00AC00AD00AE00AF00B00076
:10062000B100B200B300B400F330B500FF30B60043
:10063000B700B800B900BA00BB00BC00BD00BE00E6
:10064000BF00C000C100C200C300C400C500C60096
:10065000C700C800CF30C900F330CA00FF30CB005C
:10066000CC00CD00CE00CF00D000D100D200D3000E
:10067000D400D500D600D700D800D900DA00DB00BE
:10068000DC00DD00CF30DE00F330DF00FF30E000C3
:10069000E100E200E300E400E500E600E700E80036
:1006A000E900EA00EB00EC00ED00EE00EF00F000E6
:1006B000F100F200CF30F300F3308316A000FF30DA
:1006C000A100A200A300A400A500A600A700A80006
:1006D000A900AA00AB00AC00AD00AE00AF00B000B6
:1006E000B100B200B300CF30B400F330B500FF303A
:1006F000B600B700B800B900BA00BB00BC00BD002E
:10070000BE00BF00C000C100C200C300C400C500DD
:10071000C600C700C800CF30C900F330CA00FF30A0
:10072000CB00CC00CD00CE00CF00D000D100D20055
:10073000D300D400D500D600D700D800D900DA0005
:10074000DB00DC00DD00CF30DE00FF30831203175A
:1007500090009100920093009400950096009700FD
:10076000980099009A009B009C009D009E009F00AD
:10077000A000A100A200A300A400F401F501F6016D
:1007800003131C280317A6012030A5000313AC2077
:100790000317A6013530A5000313AC200317A601EB
:1007A0004A30A5000313AC200317A6015F30A50053
:1007B0000313AC200317A601A030A5000313AC203F
:1007C0000317A601B530A5000313AC200317A6013B
:1007D000CA30A5000313AC2001300317A600103067
:0A07E000A5000313AC20C22B630038
:04400E00E42FFF3F5D
:00000001FF
;PIC16F887
;CRC=1921  CREATED="01-Nov-15 16:48"
