:060000000A128A11F52F1F
:1000160083160313890183120313890108000A1248
:100026008A111E200A128A1194300A128A1509268C
:100036000A128A11002803308316031388008312DC
:1000460003138801881388150D30F400FB30F30084
:10005600F30B2B28F40B2B2830280A168A11AE270F
:100066000A128A110A128A110B200A128A110D30FD
:10007600F400FB30F300F30B3E28F40B3E28432834
:100086000800A4000310240C2307A5007708023EED
:1000960084000A128A1500200A128A117805A60021
:1000A60002300310A60CFF3E031D54282608250720
:1000B600A7007708013E84000A128A1500200A125A
:1000C6008A117805A80003300310A80CFF3E031D13
:1000D600672828082707A900770884000A128A15C6
:1000E60000200A128A117805AA0004300310AA0C0F
:1000F600FF3E031D79282A082907AB002B08AE000E
:100106002E08A000A101A2012008F9002108FA008A
:100116002208FB007D08A000A101A2017908A30026
:100126007A08A4007B08A50008300310A30DA40DCF
:10013600A50DFF3E031D98282308A00724080318D1
:10014600240FA628A728A10725080318250FAC28E1
:10015600AD28A2072008F9002108FA002208FB00B2
:100166007C08A000A101A2017908A3007A08A400D6
:100176007B08A50008300310A30DA40DA50DFF3EB6
:10018600031DBE282308A00724080318240FCC2823
:10019600CD28A10725080318250FD228D328A207A2
:1001A6002008F9002108FA002208FB007908F0006F
:1001B6007A08F1007B08F2000A128A15E0200A127A
:1001C6008A11083083120313A0002008F80077086C
:1001D600143E84000A128A1500200A128A11780534
:1001E600A00003300310A00DFF3E031DF52877087D
:1001F600133E84000A128A1500200A128A11780515
:10020600A10001300310A10DFF3E031D05290310B7
:10021600210D2007A2007708123E84000A128A15D3
:1002260000200A128A117805A30023072207A400DA
:100236007708113E84000A128A1500200A128A11D4
:1002460078052407A5007708103E84000A128A154F
:1002560000200A128A117805A6000310260C25072D
:10026600A70077080F3E84000A128A1500200A129A
:100276008A117805A80002300310A80CFF3E031D62
:100286003F2928082707A90077080E3E84000A128E
:100296008A1500200A128A117805AA000330031075
:1002A600AA0CFF3E031D52292A082907AB002B087A
:1002B600FC0077080D3E84000A128A1500200A12F7
:1002C6008A117805A00003300310A00DFF3E031D20
:1002D600672977080C3E84000A128A1500200A1244
:1002E6008A117805A10001300310A10DFF3E031D00
:1002F60077290310210D2007A20077080B3E840002
:100306000A128A1500200A128A117805A30023070B
:100316002207A40077080A3E84000A128A150020E4
:100326000A128A1178052407A5007708093E840079
:100336000A128A1500200A128A117805A6000310EF
:10034600260C2507A7007708083E84000A128A159E
:1003560000200A128A117805A80002300310A80CA2
:10036600FF3E031DB12928082707A9007708073E85
:1003760084000A128A1500200A128A117805AA003A
:1003860003300310AA0CFF3E031DC4292A082907BF
:10039600AB002B08FD007708063E84000A128A157A
:1003A60000200A128A117805A00003300310A00D60
:1003B600FF3E031DD9297708053E84000A128A15D7
:1003C60000200A128A117805A10001300310A10D40
:1003D600FF3E031DE9290310210D2007A20077081F
:1003E600043E84000A128A1500200A128A11780532
:1003F600A30023072207A4007708033E84000A12FD
:100406008A1500200A128A1178052407A5007708A4
:10041600023E84000A128A1500200A128A11780503
:10042600A6000310260C2507A7007708013E8400C6
:100436000A128A1500200A128A117805A8000230CD
:100446000310A80CFF3E031D232A28082707A9002E
:10045600770884000A128A1500200A128A11780584
:10046600AA0003300310AA0CFF3E031D352A2A08F2
:100476002907AB002B08AE002E08A000A101A2019F
:100486002008F9002108FA002208FB007D08A000D8
:10049600A101A2017908A3007A08A4007B08A5009F
:1004A60008300310A30DA40DA50DFF3E031D542A0D
:1004B6002308A00724080318240F622A632AA10729
:1004C60025080318250F682A692AA2072008F900BB
:1004D6002108FA002208FB007C08A000A101A20165
:1004E6007908A3007A08A4007B08A5000830031049
:1004F600A30DA40DA50DFF3E031D7A2A2308A00710
:1005060024080318240F882A892AA1072508031816
:10051600250F8E2A8F2AA2072008F9002108FA0043
:100526002208FB007908F0007A08F1007B08F20047
:100536000A128A15E0200A128A1104308312031364
:10054600A0002008F8007708143E84000A128A15D5
:1005560000200A128A117805A00004300310A00DAD
:10056600FF3E031DB12A7708133E84000A128A153E
:1005760000200A128A117805A10002300310A10D8D
:10058600FF3E031DC12A0310210D2007A200770894
:10059600123E84000A128A1500200A128A11780572
:1005A600A30001300310A30DFF3E031DD52A03103F
:1005B600230D2207A4007708113E84000A128A152B
:1005C60000200A128A117805A50025072407A6002F
:1005D6007708103E84000A128A1500200A128A1132
:1005E60078052607A70077080F3E84000A128A15A9
:1005F60000200A128A117805A8000310280C270784
:10060600A90077080E3E84000A128A1500200A12F5
:100616008A117805AA0002300310AA0CFF3E031DBA
:100626000F2B2A082907AB002B08FC0077080D3E84
:1006360084000A128A1500200A128A117805A00081
:1006460004300310A00DFF3E031D242B77080C3E3B
:1006560084000A128A1500200A128A117805A10060
:1006660002300310A10DFF3E031D342B0310210D94
:100676002007A20077080B3E84000A128A15002084
:100686000A128A117805A30001300310A30DFF3E5C
:10069600031D482B0310230D2207A40077080A3EEA
:1006A60084000A128A1500200A128A117805A5000C
:1006B60025072407A6007708093E84000A128A1532
:1006C60000200A128A1178052607A7007708083E37
:1006D60084000A128A1500200A128A117805A800D9
:1006E6000310280C2707A9007708073E84000A1282
:1006F6008A1500200A128A117805AA000230031012
:10070600AA0CFF3E031D822B2A082907AB002B08E3
:10071600FD007708063E84000A128A1500200A1298
:100726008A117805A00004300310A00DFF3E031DBA
:10073600972B7708053E84000A128A1500200A12B4
:100746008A117805A10002300310A10DFF3E031D9A
:10075600A72B0310210D2007A2007708043E840072
:100766000A128A1500200A128A117805A3000130A0
:100776000310A30DFF3E031DBB2B0310230D220701
:10078600A4007708033E84000A128A1500200A1284
:100796008A117805A50025072407A6007708023EDA
:1007A60084000A128A1500200A128A117805260783
:1007B600A7007708013E84000A128A1500200A1253
:1007C6008A117805A8000310280C2707A9007708C6
:1007D60084000A128A1500200A128A117805AA00D6
:1007E60002300310AA0CFF3E031DF42B2A0829072A
:1007F600AB002B08AE002E08A000A101A201200824
:10080600F9002108FA002208FB007D08A000A101DA
:10081600A2017908A3007A08A4007B08A500083085
:100826000310A30DA40DA50DFF3E031D132C2308D5
:10083600A00724080318240F212C222CA107250821
:100846000318250F272C282CA2072008F9002108B9
:10085600FA002208FB007C08A000A101A201790889
:10086600A3007A08A4007B08A50008300310A30D96
:10087600A40DA50DFF3E031D392C2308A00724084F
:100886000318240F472C482CA10725080318250F09
:100896004D2C4E2CA2072008F9002108FA00220848
:1008A600FB007908F0007A08F1007B08F2000A12D2
:1008B6008A15E0200A128A11023083120313A0005F
:1008C6002008F8007708143E84000A128A150020D2
:1008D6000A128A117805A00005300310A00DFF3E0C
:1008E600031D702C7708133E84000A128A15002017
:1008F6000A128A117805A10003300310A10DFF3EEC
:10090600031D802C0310210D2007A2007708123E3C
:1009160084000A128A1500200A128A117805A3009B
:1009260002300310A30DFF3E031D942C0310230D6C
:100936002207A4007708113E84000A128A150020B7
:100946000A128A117805A50001300310A50DFF3E95
:10095600031DA82C0310250D2407A6007708103EBA
:1009660084000A128A1500200A128A117805A70047
:1009760027072607A80077080F3E84000A128A1563
:1009860000200A128A1178052807A90077080E3E6A
:1009960084000A128A1500200A128A117805AA0014
:1009A60003102A0C2907AB002B08FC0077080D3E24
:1009B60084000A128A1500200A128A117805A000FE
:1009C60005300310A00DFF3E031DE42C77080C3EF6
:1009D60084000A128A1500200A128A117805A100DD
:1009E60003300310A10DFF3E031DF42C0310210D4F
:1009F6002007A20077080B3E84000A128A15002001
:100A06000A128A117805A30002300310A30DFF3ED7
:100A1600031D082D0310230D2207A40077080A3EA4
:100A260084000A128A1500200A128A117805A50088
:100A360001300310A50DFF3E031D1C2D0310250DCF
:100A46002407A6007708093E84000A128A150020AA
:100A56000A128A117805A70027072607A800770833
:100A6600083E84000A128A1500200A128A117805A7
:100A76002807A9007708073E84000A128A15002075
:100A86000A128A117805AA0003102A0C2907AB005E
:100A96002B08FD007708063E84000A128A150020FE
:100AA6000A128A117805A00005300310A00DFF3E3A
:100AB600031D582D7708053E84000A128A1500206A
:100AC6000A128A117805A10003300310A10DFF3E1A
:100AD600031D682D0310210D2007A2007708043E90
:100AE60084000A128A1500200A128A117805A300CA
:100AF60002300310A30DFF3E031D7C2D0310230DB2
:100B06002207A4007708033E84000A128A150020F3
:100B16000A128A117805A50001300310A50DFF3EC3
:100B2600031D902D0310250D2407A6007708023E0D
:100B360084000A128A1500200A128A117805A70075
:100B460027072607A8007708013E84000A128A159F
:100B560000200A128A1178052807A9007708840060
:100B66000A128A1500200A128A117805AA000310B3
:100B76002A0C2907AB002B08AE002E08A000A10105
:100B8600A2012008F9002108FA002208FB007D08CE
:100B9600A000A101A2017908A3007A08A4007B089D
:100BA600A50008300310A30DA40DA50DFF3E031DDF
:100BB600D52D2308A00724080318240FE32DE42DC0
:100BC600A10725080318250FE92DEA2DA2072008FD
:100BD600F9002108FA002208FB007C08A000A10108
:100BE600A2017908A3007A08A4007B08A5000830B2
:100BF6000310A30DA40DA50DFF3E031DFB2D230819
:100C0600A00724080318240F092E0A2EA107250879
:100C16000318250F0F2E102EA2072008F900210811
:100C2600FA002208FB007908F0007A08F1007B0838
:100C3600F2000A128A15E0200A128A11F801F80A4F
:100C46007708143E84000A128A1500200A128A11B7
:100C5600780583120313A00006300310A00DFF3E93
:100C6600031D302E7708133E84000A128A150020D1
:100C76000A128A117805A10004300310A10DFF3E67
:100C8600031D402E0310210D2007A2007708123EF7
:100C960084000A128A1500200A128A117805A30018
:100CA60003300310A30DFF3E031D542E0310230D26
:100CB6002207A4007708113E84000A128A15002034
:100CC6000A128A117805A50002300310A50DFF3E11
:100CD600031D682E0310250D2407A6007708103E75
:100CE60084000A128A1500200A128A117805A700C4
:100CF60001300310A70DFF3E031D7C2E0310270DA8
:100D06002607A80077080F3E84000A128A150020DD
:100D16000A128A117805A90029072807AA00770868
:100D26000E3E84000A128A1500200A128A117805DE
:100D36002A07AB002B08FC0077080D3E84000A1238
:100D46008A1500200A128A117805A00006300310C1
:100D5600A00DFF3E031DAA2E77080C3E84000A1242
:100D66008A1500200A128A117805A10004300310A2
:100D7600A10DFF3E031DBA2E0310210D2007A20070
:100D860077080B3E84000A128A1500200A128A117F
:100D96007805A30003300310A30DFF3E031DCE2EDE
:100DA6000310230D2207A40077080A3E84000A12C6
:100DB6008A1500200A128A117805A5000230031050
:100DC600A50DFF3E031DE22E0310250D2407A600E8
:100DD6007708093E84000A128A1500200A128A1131
:100DE6007805A70001300310A70DFF3E031DF62E60
:100DF6000310270D2607A8007708083E84000A126C
:100E06008A1500200A128A117805A90029072807E1
:100E1600AA007708073E84000A128A1500200A12E3
:100E26008A1178052A07AB002B08FD007708063ED5
:100E360084000A128A1500200A128A117805A00079
:100E460006300310A00DFF3E031D242F7708053E34
:100E560084000A128A1500200A128A117805A10058
:100E660004300310A10DFF3E031D342F0310210D86
:100E76002007A2007708043E84000A128A15002083
:100E86000A128A117805A30003300310A30DFF3E52
:100E9600031D482F0310230D2207A4007708033EE5
:100EA60084000A128A1500200A128A117805A50004
:100EB60002300310A50DFF3E031D5C2F0310250D08
:100EC6002407A6007708023E84000A128A1500202D
:100ED6000A128A117805A70001300310A70DFF3EFC
:100EE600031D702F0310270D2607A8007708013E63
:100EF60084000A128A1500200A128A117805A900B0
:100F060029072807AA00770884000A128A150020F4
:100F16000A128A1178052A07AB002B08AE002E08A4
:100F2600A000A101A2012008F9002108FA00220868
:100F3600FB007D08A000A101A2017908A3007A08A0
:100F4600A4007B08A50008300310A30DA40DA50D71
:100F5600FF3E031DA72F2308A00724080318240F0C
:100F6600B52FB62FA10725080318250FBB2FBC2FB9
:100F7600A2072008F9002108FA002208FB007C08D5
:100F8600A000A101A2017908A3007A08A4007B08A9
:100F9600A50008300310A30DA40DA50DFF3E031DEB
:100FA600CD2F2308A00724080318240FDB2FDC2FDE
:100FB600A10725080318250FE12FE22FA207200815
:100FC600F9002108FA002208FB007908F0007A08E7
:100FD600F1007B08F2000A128A15E020831203133F
:100FE60008110800F901FA01FB01FC01FD01AD0140
:100FF600AE0183010A128A11122808308A000408F9
:10100600840A82070034003400340034003400348B
:10101600003400340034003400340034003400342A
:10102600003400340034003400340034003400341A
:10103600003400340034003400340034003400340A
:1010460000340034003400340034003400340034FA
:1010560000340034003400340034003400340034EA
:1010660000340034003400340034003400340034DA
:1010760000340034003400340034003400340034CA
:1010860000340034003400340034003400340034BA
:1010960000340034003400340034003400340034AA
:1010A600003400340034003400340034003400349A
:1010B600003400340034003400340034003400348A
:1010C600003400340034003400340034003400347A
:1010D600003400340034003400340034003400346A
:1010E600003400340034003400340034003400345A
:1010F600003400340034003400340034003400344A
:101106000034003400340034003400340034003439
:101116000034003400340034003400340034003429
:101126000034003400340034003400340134103408
:1011360001341034013410340134003400340034E6
:1011460000340034003400340034003400340034F9
:06115600003400340034F7
:1011C0001730F3007308F600760803191329700826
:1011D000F3007108F4007208F500760AF328031092
:1011E000F50CF40CF30CFF3E031DEF28731CFC28D8
:1011F000831203130816FF28831203130812002911
:10120000012900008312031388160330F300F30B47
:1012100007298312031388120330F300F30B0E29FE
:101220000130F602E428701C1929831203130816F2
:101230001C298312031308121D291E290000831282
:10124000031388160330F300F30B242983120313CE
:1012500088120330F300F30B2B29831203130817B2
:101260000330F300F30B3229831203130813033006
:10127000F300F30B39290800AB0007300310AB0C67
:10128000FF3E031D3E292B082A07AC002C08FD0059
:101290007708063E84000A128A1500200A128A1571
:1012A0007805A00001300310A00CFF3E031D532958
:1012B0007708053E84000A128A1500200A128A1552
:1012C0007805A10002300310A10CFF3E031D632925
:1012D00021082007A2007708043E84000A128A151C
:1012E00000200A128A157805A30003300310A30C0E
:1012F000FF3E031D762923082207A4007708033E3A
:1013000084000A128A1500200A128A157805A500A1
:1013100004300310A50CFF3E031D8929250824076E
:10132000A6007708023E84000A128A1500200A12DD
:101330008A157805A70005300310A70CFF3E031D92
:101340009C2927082607A8007708013E84000A1276
:101350008A1500200A128A157805A90006300310A4
:10136000A90CFF3E031DAF2929082807AA0077080A
:1013700084000A128A15002078050A128A15CB2AE1
:10138000AB0007300310AB0CFF3E031DC2292B0836
:101390002A07AC002C08FC0077080D3E84000A12D6
:1013A0008A1500200A128A157805A0000130031062
:1013B000A00CFF3E031DD72977080C3E84000A12BB
:1013C0008A1500200A128A157805A1000230031040
:1013D000A10CFF3E031DE72921082007A200770882
:1013E0000B3E84000A128A1500200A128A1578051D
:1013F000A30003300310A30CFF3E031DFA292308AA
:101400002207A40077080A3E84000A128A150020E9
:101410000A128A157805A50004300310A50CFF3EBA
:10142000031D0D2A25082407A6007708093E84001D
:101430000A128A1500200A128A157805A7000530BD
:101440000310A70CFF3E031D202A27082607A8002B
:101450007708083E84000A128A1500200A128A15AD
:101460007805A90006300310A90CFF3E031D332A9E
:1014700029082807AA007708073E84000A128A155F
:10148000002078050A128A153C2983120313A00054
:101490002008F8007708143E84000A128A150020FC
:1014A0000A128A157805A00001300310A00DFF3E36
:1014B000031D552A7708133E84000A128A1500205E
:1014C0000A128A1578052007A1007708123E8400C9
:1014D0000A128A1500200A128A157805A200031044
:1014E000220C2107A3007708113E84000A128A15F6
:1014F00000200A128A157805A40002300310A40CFB
:10150000FF3E031D7E2A24082307A5007708103E0E
:1015100084000A128A1500200A128A157805A6008E
:1015200003300310A60CFF3E031D912A2608250751
:10153000A70077080F3E84000A128A1500200A12BD
:101540008A157805A80004300310A80CFF3E031D7F
:10155000A42A28082707A90077080E3E84000A124B
:101560008A1500200A128A157805AA000530031092
:10157000AA0CFF3E031DB72A2A082907AB002B0837
:10158000FC0077080D3E84000A128A1500207805B9
:101590000A128A15522BAB0007300310AB0CFF3E2A
:1015A000031DCD2A2B082A07AC002C08AE002E08FC
:1015B000A000A101A2012008F9002108FA002208D8
:1015C000FB007D08A000A101A2017908A3007A0810
:1015D000A4007B08A50008300310A30DA40DA50DE1
:1015E000FF3E031DEC2A2308A00724080318240F3C
:1015F000FA2AFB2AA10725080318250F002B012B27
:10160000A2072008F9002108FA002208FB007C0844
:10161000A000A101A2017908A3007A08A4007B0818
:10162000A50008300310A30DA40DA50DFF3E031D5A
:10163000122B2308A00724080318240F202B212B8A
:10164000A10725080318250F262B272BA207200802
:10165000F9002108FA002208FB007908F0007A0856
:10166000F1007B08F2000A128A15E0200A128A159E
:10167000403083120313A0002008F8007708143EBE
:1016800084000A128A1500200A128A157805A00023
:101690007708133E84000A128A15002078050A1282
:1016A0008A15DA2BA00001300310A00DFF3E031DA8
:1016B000542B77080C3E84000A128A1500200A1267
:1016C0008A1578052007A10077080B3E84000A12CE
:1016D0008A1500200A128A157805A2000310220C30
:1016E0002107A30077080A3E84000A128A15002009
:1016F0000A128A157805A40002300310A40CFF3EDC
:10170000031D7D2B24082307A5007708093E8400CC
:101710000A128A1500200A128A157805A6000330DD
:101720000310A60CFF3E031D902B26082507A700DB
:101730007708083E84000A128A1500200A128A15CA
:101740007805A80004300310A80CFF3E031DA32B4E
:1017500028082707A9007708073E84000A128A157F
:1017600000200A128A157805AA0005300310AA0C79
:10177000FF3E031DB62B2A082907AB002B08FD00EE
:101780007708063E84000A128A1500200A128A157C
:101790007805A00001300310A00DFF3E031DCB2BE8
:1017A0007708053E84000A128A15002078050A127F
:1017B0008A15402FA1000310210C2007A2007708F2
:1017C000123E84000A128A1500200A128A15780532
:1017D000A30002300310A30CFF3E031DEA2B2308D5
:1017E0002207A4007708113E84000A128A150020FF
:1017F0000A128A157805A50003300310A50CFF3ED8
:10180000031DFD2B25082407A6007708103E840041
:101810000A128A1500200A128A157805A7000430DA
:101820000310A70CFF3E031D102C27082607A80055
:1018300077080F3E84000A128A1500200A128A15C2
:101840007805A90005300310A90CFF3E031D232CC9
:1018500029082807AA0077080E3E84000A128A1574
:1018600000200A128A157805AB0006300310AB0C75
:10187000FF3E031D362C2B082A07AC002C08FC0069
:1018800077080D3E84000A128A1500200A128A1574
:101890007805A00077080C3E84000A128A15002003
:1018A0000A128A157805A1000310210C2007A20056
:1018B00077080B3E84000A128A15002078050A1268
:1018C0008A15EC2CA10021072007A20077080B3E07
:1018D00084000A128A1500200A128A157805220748
:1018E000A30077080A3E84000A128A1500200A1213
:1018F0008A157805A4000310240C2307A500770897
:10190000093E84000A128A1500200A128A157805F9
:10191000A60002300310A60CFF3E031D8A2C2608E9
:101920002507A7007708083E84000A128A150020C0
:101930000A128A157805A80003300310A80CFF3E90
:10194000031D9D2C28082707A9007708073E84005F
:101950000A128A1500200A128A157805AA00043096
:101960000310AA0CFF3E031DB02C2A082907AB0068
:101970002B08FD007708063E84000A128A15002015
:101980000A128A157805A00002300310A00DFF3E50
:10199000031DC52C7708053E84000A128A15002015
:1019A0000A128A157805A10021072007A2007708EE
:1019B000043E84000A128A1500200A128A1578054E
:1019C0002207A3007708033E84000A128A1500202C
:1019D00078050A128A114428A30002300310A30CD0
:1019E000FF3E031DEE2C23082207A40077080A3EC1
:1019F00084000A128A1500200A128A157805A500AB
:101A000003300310A50CFF3E031D012D25082407FC
:101A1000A6007708093E84000A128A1500200A12DF
:101A20008A157805A70004300310A70CFF3E031D9C
:101A3000142D27082607A8007708083E84000A12FC
:101A40008A1500200A128A157805A90005300310AE
:101A5000A90CFF3E031D272D29082807AA00770897
:101A6000073E84000A128A1500200A128A1578059A
:101A7000AB0006300310AB0CFF3E031D3A2D2B08C4
:101A80002A07AC002C08FD007708063E84000A12E5
:101A90008A1500200A128A157805A0007708053EED
:101AA00084000A128A1500200A128A157805A100FE
:101AB0000310210C2007A2007708043E84000A12BC
:101AC0008A1500200A128A157805A3000230031037
:101AD000A30CFF3E031D672D23082207A4007708EF
:101AE000033E84000A128A15002078050A128A151E
:101AF000992E83120313A0002008F8007708143EE3
:101B000084000A128A1500200A128A157805A0009E
:101B100002300310A00DFF3E031D892D7708133EF0
:101B200084000A128A1500200A128A157805A1007D
:101B300021072007A2007708123E84000A128A15A6
:101B400000200A128A1578052207A3007708113EA3
:101B500084000A128A1500200A128A157805A4004A
:101B60000310240C2307A5007708103E84000A12F6
:101B70008A1500200A128A157805A6000230031083
:101B8000A60CFF3E031DBF2D26082507A7007708DA
:101B90000F3E84000A128A1500200A128A15780561
:101BA000A80003300310A80CFF3E031DD22D280807
:101BB0002707A90077080E3E84000A128A15002024
:101BC0000A128A157805AA0004300310AA0CFF3EF9
:101BD000031DE52D2A082907AB002B08FC00770818
:101BE0000D3E84000A128A1500200A128A15780513
:101BF000A00002300310A00DFF3E031DFA2D770850
:101C00000C3E84000A128A15002078050A128A15F3
:101C1000622CF7000730831203132D06031D132EC9
:101C2000AD018811182E88150130A0002008AD07DD
:101C300000008312031308158030A0002008F8006C
:101C40007708143E84000A128A1500200A128A15A9
:101C50007805A00001300310A00CFF3E031D2B2EC1
:101C60007708133E84000A128A1500200A128A158A
:101C70007805A10002300310A10CFF3E031D3B2E8E
:101C800021082007A2007708123E84000A128A1554
:101C900000200A128A157805A30003300310A30C54
:101CA000FF3E031D4E2E23082207A4007708113E95
:101CB00084000A128A1500200A128A157805A500E8
:101CC00004300310A50CFF3E031D612E25082407D8
:101CD000A6007708103E84000A128A1500200A1216
:101CE0008A157805A70005300310A70CFF3E031DD9
:101CF000742E27082607A80077080F3E84000A12D2
:101D00008A1500200A128A157805A90006300310EA
:101D1000A90CFF3E031D872E29082807AA00770873
:101D20000E3E84000A128A15002078050A128A15D0
:101D3000C029A50003300310A50CFF3E031D9B2EF8
:101D400025082407A6007708023E84000A128A1597
:101D500000200A128A157805A70004300310A70C8A
:101D6000FF3E031DAE2E27082607A8007708013E78
:101D700084000A128A1500200A128A157805A90023
:101D800005300310A90CFF3E031DC12E29082807AA
:101D9000AA00770884000A128A1500200A128A1500
:101DA0007805AB0006300310AB0CFF3E031DD32EAD
:101DB0002B082A07AC002C08AE002E08A000A101B9
:101DC000A2012008F9002108FA002208FB007D0882
:101DD000A000A101A2017908A3007A08A4007B0851
:101DE000A50008300310A30DA40DA50DFF3E031D93
:101DF000F22E2308A00724080318240F002F012F18
:101E0000A10725080318250F062F072FA207200872
:101E1000F9002108FA002208FB007C08A000A101BB
:101E2000A2017908A3007A08A4007B08A500083065
:101E30000310A30DA40DA50DFF3E031D182F2308AD
:101E4000A00724080318240F262F272FA1072508F1
:101E50000318250F2C2F2D2FA2072008F900210889
:101E6000FA002208FB007908F0007A08F1007B08EC
:101E7000F2000A128A15E02020300A128A15452A3B
:101E80002007A1007708043E84000A128A1500206A
:101E90000A128A157805A2000310220C2107A3005C
:101EA0007708033E84000A128A1500200A128A1558
:101EB0007805A40002300310A40CFF3E031D5B2F25
:101EC00024082307A5007708023E84000A128A1519
:101ED00000200A128A157805A60003300310A60C0C
:101EE000FF3E031D6E2F26082507A7007708013E39
:101EF00084000A128A1500200A128A157805A800A3
:101F000004300310A80CFF3E031D812F280827076B
:101F1000A900770884000A128A1500200A128A157F
:101F20007805AA0005300310AA0CFF3E031D932F6D
:101F30002A082907AB002B08AE002E08A000A1013B
:101F4000A2012008F9002108FA002208FB007D0800
:101F5000A000A101A2017908A3007A08A4007B08CF
:101F6000A50008300310A30DA40DA50DFF3E031D11
:101F7000B22F2308A00724080318240FC02FC12F55
:101F8000A10725080318250FC62FC72FA207200871
:101F9000F9002108FA002208FB007C08A000A1013A
:101FA000A2017908A3007A08A4007B08A5000830E4
:101FB0000310A30DA40DA50DFF3E031DD82F23086C
:101FC000A00724080318240FE62FE72FA1072508F0
:101FD0000318250FEC2FED2FA2072008F900210888
:101FE000FA002208FB007908F0007A08F1007B086B
:101FF000F2000A128A15E02010300A128A15792D93
:102F5C000830F0007008F2008312031388170D304C
:102F6C00F100FB30F000F00BB92FF10BB92FBE2F95
:102F7C00831203138811000083120313081588159C
:102F8C000330F1009730F000F00BCA2FF10BCA2F71
:102F9C00CF2F8312031308110330F1009730F00088
:102FAC00F00BD62FF10BD62FDB2F0130F202720A69
:102FBC000319F92F8312031308150330F10097300E
:102FCC00F000F00BE72FF10BE72FEC2F831203131C
:102FDC0008110330F1009730F000F00BF32FF10BD8
:102FEC00F32FF82FDB2F0730F00070088312031338
:042FFC00AD0008001C
:04400E00F4FFFFFFBD
:00000001FF
