:060000000A128A11F62F1E
:10000E0083160313890183120313890108008312D7
:10001E0003138815081113288312031308151728C4
:10002E000800F2007208F00002300310F00DFF3EDF
:10003E00031D1C280310700DF1007108F3008312CC
:10004E000313081509150630F000F00B2C280000DC
:10005E008312031309110630F000F00B3428000050
:10006E000130F302730A03190800831203130811F7
:10007E00402883120313081544283728A4000310C0
:10008E00240C2307A5007808023E84000A128A1564
:10009E0000200A128A117705A60002300310A60C62
:1000AE00FF3E031D552826082507A7007808013EA8
:1000BE0084000A128A1500200A128A117705A800F8
:1000CE0003300310A80CFF3E031D682828082707DD
:1000DE00A900780884000A128A1500200A128A11D3
:1000EE007705AA0004300310AA0CFF3E031D7A28E0
:1000FE002A082907AB002B08AD002F08A000A1018C
:10010E00A2012008FB002108FC002208FD002E0899
:10011E00A000A101A2017B08A3007C08A4007D0819
:10012E00A50008300310A30DA40DA50DFF3E031D61
:10013E0099282308A00724080318240FA728A82805
:10014E00A10725080318250FAD28AE28A207200801
:10015E00FB002108FC002208FD002D08A000A101D3
:10016E00A2017B08A3007C08A4007D08A50008302E
:10017E000310A30DA40DA50DFF3E031DBF282308DC
:10018E00A00724080318240FCD28CE28A107250880
:10019E000318250FD328D428A2072008FB00210816
:1001AE00FC002208FD007B08F0007C08F1007D08B1
:1001BE00F2000A168A11A5270A128A110830831234
:1001CE000313A0002008F7007808143E84000A12DA
:1001DE008A1500200A128A117705A0000330031039
:1001EE00A00DFF3E031DF6287808133E84000A1268
:1001FE008A1500200A128A117705A100013003101A
:10020E00A10DFF3E031D06290310210D2007A2009C
:10021E007808123E84000A128A1500200A128A11EA
:10022E007705A30023072207A4007808113E840057
:10023E000A128A1500200A128A1177052407A500D2
:10024E007808103E84000A128A1500200A128A11BC
:10025E007705A6000310260C2507A70078080F3E89
:10026E0084000A128A1500200A128A117705A80046
:10027E0002300310A80CFF3E031D40292808270753
:10028E00A90078080E3E84000A128A1500200A1270
:10029E008A117705AA0003300310AA0CFF3E031D36
:1002AE0053292A082907AB002B08AF0078080D3E0A
:1002BE0084000A128A1500200A128A117705A000FE
:1002CE0003300310A00DFF3E031D682978080C3E75
:1002DE0084000A128A1500200A128A117705A100DD
:1002EE0001300310A10DFF3E031D78290310210DCF
:1002FE002007A20078080B3E84000A128A150020FF
:10030E000A128A117705A30023072207A400780892
:10031E000A3E84000A128A1500200A128A117705F5
:10032E002407A5007808093E84000A128A150020C9
:10033E000A128A117705A6000310260C2507A700BE
:10034E007808083E84000A128A1500200A128A11C3
:10035E007705A80002300310A80CFF3E031DB2293A
:10036E0028082707A9007808073E84000A128A1574
:10037E0000200A128A117705AA0003300310AA0C76
:10038E00FF3E031DC5292A082907AB002B08AE0026
:10039E007808063E84000A128A1500200A128A1175
:1003AE007705A00003300310A00DFF3E031DDA29D0
:1003BE007808053E84000A128A1500200A128A1156
:1003CE007705A10001300310A10DFF3E031DEA29A0
:1003DE000310210D2007A2007808043E84000A12A3
:1003EE008A1500200A128A117705A3002307220717
:1003FE00A4007808033E84000A128A1500200A120F
:10040E008A1177052407A5007808023E84000A1297
:10041E008A1500200A128A117705A6000310260CF1
:10042E002507A7007808013E84000A128A150020CD
:10043E000A128A117705A80002300310A80CFF3E9D
:10044E00031D242A28082707A900780884000A1209
:10045E008A1500200A128A117705AA0003300310AC
:10046E00AA0CFF3E031D362A2A082907AB002B08CB
:10047E00AD002F08A000A101A2012008FB00210859
:10048E00FC002208FD002E08A000A101A2017B089D
:10049E00A3007C08A4007D08A50008300310A30D5E
:1004AE00A40DA50DFF3E031D552A2308A007240801
:1004BE000318240F632A642AA10725080318250FA1
:1004CE00692A6A2AA2072008FB002108FC002208DC
:1004DE00FD002D08A000A101A2017B08A3007C084D
:1004EE00A4007D08A50008300310A30DA40DA50DD2
:1004FE00FF3E031D7B2A2308A00724080318240FA0
:10050E00892A8A2AA10725080318250F8F2A902ADF
:10051E00A2072008FB002108FC002208FD007B0832
:10052E00F0007C08F1007D08F2000A168A11A5275A
:10053E000A128A11043083120313A0002008F70058
:10054E007808143E84000A128A1500200A128A11B5
:10055E007705A00004300310A00DFF3E031DB22A44
:10056E007808133E84000A128A1500200A128A1196
:10057E007705A10002300310A10DFF3E031DC22A14
:10058E000310210D2007A2007808123E84000A12E3
:10059E008A1500200A128A117705A3000130031074
:1005AE00A30DFF3E031DD62A0310230D2207A40020
:1005BE007808113E84000A128A1500200A128A1148
:1005CE007705A50025072407A6007808103E8400AD
:1005DE000A128A1500200A128A1177052607A7002B
:1005EE0078080F3E84000A128A1500200A128A111A
:1005FE007705A8000310280C2707A90078080E3EDF
:10060E0084000A128A1500200A128A117705AA00A0
:10061E0002300310AA0CFF3E031D102B2A082907D7
:10062E00AB002B08AF0078080D3E84000A128A1525
:10063E0000200A128A117705A00004300310A00DC5
:10064E00FF3E031D252B78080C3E84000A128A15E6
:10065E0000200A128A117705A10002300310A10DA5
:10066E00FF3E031D352B0310210D2007A200780835
:10067E000B3E84000A128A1500200A128A11770591
:10068E00A30001300310A30DFF3E031D492B0310E1
:10069E00230D2207A40078080A3E84000A128A1548
:1006AE0000200A128A117705A50025072407A60047
:1006BE007808093E84000A128A1500200A128A114F
:1006CE0077052607A7007808083E84000A128A15C7
:1006DE0000200A128A117705A8000310280C27079C
:1006EE00A9007808073E84000A128A1500200A1213
:1006FE008A117705AA0002300310AA0CFF3E031DD3
:10070E00832B2A082907AB002B08AE007808063E7B
:10071E0084000A128A1500200A128A117705A00099
:10072E0004300310A00DFF3E031D982B7808053EE4
:10073E0084000A128A1500200A128A117705A10078
:10074E0002300310A10DFF3E031DA82B0310210D37
:10075E002007A2007808043E84000A128A150020A1
:10076E000A128A117705A30001300310A30DFF3E74
:10077E00031DBC2B0310230D2207A4007808033E93
:10078E0084000A128A1500200A128A117705A50024
:10079E0025072407A6007808023E84000A128A154F
:1007AE0000200A128A1177052607A7007808013E55
:1007BE0084000A128A1500200A128A117705A800F1
:1007CE000310280C2707A900780884000A128A153E
:1007DE0000200A128A117705AA0002300310AA0C13
:1007EE00FF3E031DF52B2A082907AB002B08AD0091
:1007FE002F08A000A101A2012008FB002108FC0087
:10080E002208FD002E08A000A101A2017B08A30072
:10081E007C08A4007D08A50008300310A30DA40DCC
:10082E00A50DFF3E031D142C2308A0072408031852
:10083E00240F222C232CA10725080318250F282C62
:10084E00292CA2072008FB002108FC002208FD002D
:10085E002D08A000A101A2017B08A3007C08A40022
:10086E007D08A50008300310A30DA40DA50DFF3EB5
:10087E00031D3A2C2308A00724080318240F482C24
:10088E00492CA10725080318250F4E2C4F2CA20723
:10089E002008FB002108FC002208FD007B08F00068
:1008AE007C08F1007D08F2000A168A11A5270A12AB
:1008BE008A11023083120313A0002008F700780873
:1008CE00143E84000A128A1500200A128A11770536
:1008DE00A00005300310A00DFF3E031D712C7808FB
:1008EE00133E84000A128A1500200A128A11770517
:1008FE00A10003300310A10DFF3E031D812C031038
:10090E00210D2007A2007808123E84000A128A15D3
:10091E0000200A128A117705A30002300310A30DDE
:10092E00FF3E031D952C0310230D2207A40078080B
:10093E00113E84000A128A1500200A128A117705C8
:10094E00A50001300310A50DFF3E031DA92C0310B9
:10095E00250D2407A6007808103E84000A128A1579
:10096E0000200A128A117705A70027072607A8007C
:10097E0078080F3E84000A128A1500200A128A1186
:10098E0077052807A90078080E3E84000A128A15FA
:10099E0000200A128A117705AA0003102A0C2907D3
:1009AE00AB002B08AF0078080D3E84000A128A15A2
:1009BE0000200A128A117705A00005300310A00D41
:1009CE00FF3E031DE52C78080C3E84000A128A15A2
:1009DE0000200A128A117705A10003300310A10D21
:1009EE00FF3E031DF52C0310210D2007A2007808F1
:1009FE000B3E84000A128A1500200A128A1177050E
:100A0E00A30002300310A30DFF3E031D092D03109A
:100A1E00230D2207A40078080A3E84000A128A15C4
:100A2E0000200A128A117705A50001300310A50DCA
:100A3E00FF3E031D1D2D0310250D2407A60078086B
:100A4E00093E84000A128A1500200A128A117705BF
:100A5E00A70027072607A8007808083E84000A1278
:100A6E008A1500200A128A1177052807A90078082E
:100A7E00073E84000A128A1500200A128A11770591
:100A8E00AA0003102A0C2907AB002B08AE00780829
:100A9E00063E84000A128A1500200A128A11770572
:100AAE00A00005300310A00DFF3E031D592D780840
:100ABE00053E84000A128A1500200A128A11770553
:100ACE00A10003300310A10DFF3E031D692D03107D
:100ADE00210D2007A2007808043E84000A128A1510
:100AEE0000200A128A117705A30002300310A30D0D
:100AFE00FF3E031D7D2D0310230D2207A400780851
:100B0E00033E84000A128A1500200A128A11770504
:100B1E00A50001300310A50DFF3E031D912D0310FE
:100B2E00250D2407A6007808023E84000A128A15B5
:100B3E0000200A128A117705A70027072607A800AA
:100B4E007808013E84000A128A1500200A128A11C2
:100B5E0077052807A900780884000A128A15002054
:100B6E000A128A117705AA0003102A0C2907AB0076
:100B7E002B08AD002F08A000A101A2012008FB0048
:100B8E002108FC002208FD002E08A000A101A201F0
:100B9E007B08A3007C08A4007D08A5000830031084
:100BAE00A30DA40DA50DFF3E031DD62D2308A007F2
:100BBE0024080318240FE42DE52DA107250803189A
:100BCE00250FEA2DEB2DA2072008FB002108FC00C3
:100BDE002208FD002D08A000A101A2017B08A300A0
:100BEE007C08A4007D08A50008300310A30DA40DF9
:100BFE00A50DFF3E031DFC2D2308A0072408031896
:100C0E00240F0A2E0B2EA10725080318250F102ED0
:100C1E00112EA2072008FB002108FC002208FD006F
:100C2E007B08F0007C08F1007D08F2000A168A119C
:100C3E00A5270A128A11F701F70A7808143E8400D4
:100C4E000A128A1500200A128A11770583120313DD
:100C5E00A00006300310A00DFF3E031D312E7808B4
:100C6E00133E84000A128A1500200A128A11770593
:100C7E00A10004300310A10DFF3E031D412E0310F1
:100C8E00210D2007A2007808123E84000A128A1550
:100C9E0000200A128A117705A30003300310A30D5A
:100CAE00FF3E031D552E0310230D2207A4007808C6
:100CBE00113E84000A128A1500200A128A11770545
:100CCE00A50002300310A50DFF3E031D692E031073
:100CDE00250D2407A6007808103E84000A128A15F6
:100CEE0000200A128A117705A70001300310A70D04
:100CFE00FF3E031D7D2E0310270D2607A800780842
:100D0E000F3E84000A128A1500200A128A117705F6
:100D1E00A90029072807AA0078080E3E84000A12A7
:100D2E008A1500200A128A1177052A07AB002B08B4
:100D3E00AF0078080D3E84000A128A1500200A12B0
:100D4E008A117705A00006300310A00DFF3E031D8B
:100D5E00AB2E78080C3E84000A128A1500200A1267
:100D6E008A117705A10004300310A10DFF3E031D6B
:100D7E00BB2E0310210D2007A20078080B3E840025
:100D8E000A128A1500200A128A117705A300033071
:100D9E000310A30DFF3E031DCF2E0310230D2207BC
:100DAE00A40078080A3E84000A128A1500200A124E
:100DBE008A117705A50002300310A50DFF3E031D15
:100DCE00E32E0310250D2407A6007808093E8400A3
:100DDE000A128A1500200A128A117705A70001301F
:100DEE000310A70DFF3E031DF72E0310270D260738
:100DFE00A8007808083E84000A128A1500200A12FC
:100E0E008A117705A90029072807AA007808073E46
:100E1E0084000A128A1500200A128A1177052A0701
:100E2E00AB002B08AE007808063E84000A128A1525
:100E3E0000200A128A117705A00006300310A00DBB
:100E4E00FF3E031D252F7808053E84000A128A15E1
:100E5E0000200A128A117705A10004300310A10D9B
:100E6E00FF3E031D352F0310210D2007A200780829
:100E7E00043E84000A128A1500200A128A11770590
:100E8E00A30003300310A30DFF3E031D492F0310D3
:100E9E00230D2207A4007808033E84000A128A1547
:100EAE0000200A128A117705A50002300310A50D45
:100EBE00FF3E031D5D2F0310250D2407A6007808A5
:100ECE00023E84000A128A1500200A128A11770542
:100EDE00A70001300310A70DFF3E031D712F031055
:100EEE00270D2607A8007808013E84000A128A15ED
:100EFE0000200A128A117705A90029072807AA00DF
:100F0E00780884000A128A1500200A128A117705C1
:100F1E002A07AB002B08AD002F08A000A101A201EB
:100F2E002008FB002108FC002208FD002E08A0006E
:100F3E00A101A2017B08A3007C08A4007D08A500E6
:100F4E0008300310A30DA40DA50DFF3E031DA82F01
:100F5E002308A00724080318240FB62FB72FA107C4
:100F6E0025080318250FBC2FBD2FA2072008FB0054
:100F7E002108FC002208FD002D08A000A101A201FD
:100F8E007B08A3007C08A4007D08A5000830031090
:100F9E00A30DA40DA50DFF3E031DCE2F2308A00704
:100FAE0024080318240FDC2FDD2FA10725080318B2
:100FBE00250FE22FE32FA2072008FB002108FC00DB
:100FCE002208FD007B08F0007C08F1007D08F2008D
:100FDE000A168A11A5278312031388110800FB0134
:100FEE00FC01FD01AD01AE01AF0183010A168A11AC
:100FFE00862F08308A000408840A82070034FF34E2
:10100E00FF34FF34FF34FF34FF34FF34FF34FF343A
:10101E00FF34FF34FF34FF34FF34FF34FF34FF342A
:10102E00FF34FF34FF34FF34C03400340034003456
:10103E000034003400340034003400340034003402
:10104E0000340034003400340034003400340034F2
:10105E000334C0340034003400340034003400341F
:10106E00C3343634003400340034003400340034D9
:10107E00003400340034003400340334C0340034FF
:10108E0000340034003400340034C434AA34003444
:10109E0000340034003400340034003400340034A2
:1010AE00003400340334C0340034003400340034CF
:1010BE0000340034C734AA34003400340034003411
:1010CE00003400340034003400340034003403346F
:1010DE00C034003400340034003400340034F434AE
:1010EE00A2340034003400340034003400340034B0
:1010FE0000340034003400340334C034003400347F
:10110E000034003400340034003400340034003431
:10111E000034003400340034003400340034003421
:10112E0000340334FF34FF34FF34FF34FF34FF3414
:10113E00FF34FF34FF34FF34FF34FF34FF34FF3409
:0E114E00FF34FF34FF34FF34FF34FF34FF342E
:101180000330831603138800831203138801881326
:10119000081588150D30F100FB30F000F00BCE285B
:1011A000F10BCE28D3288312031388170A128A1151
:1011B00007200A128A150D30F100FB30F000F00B09
:1011C000DF28F10BDF28E4280800F90079080A126B
:1011D0008A1118200A128A1501300A128A15692408
:1011E0000A128A150A128A110E200A128A1516305E
:1011F0000A128A1569240A128A150A128A110E2007
:101200000A128A152B300A128A1569240A128A15C5
:101210000A128A110E200A128A1540300A128A1503
:1012200069240A128A150A128A110E200A128A15D6
:1012300055300A128A1569240A128A150A128A116F
:101240000E200A128A156A300A128A1569240A12B7
:101250008A150A128A110E200A128A157F300A1284
:101260008A1569240A128A150A128A110E200A1296
:101270008A1594300A128A1569240A128A150A12EC
:101280008A110E200800AB0007300310AB0CFF3EA4
:10129000031D45292B082A07AC002C08AE0078084E
:1012A000063E84000A128A1500200A128A15770564
:1012B000A00001300310A00CFF3E031D5A2978083E
:1012C000053E84000A128A1500200A128A15770545
:1012D000A10002300310A10CFF3E031D6A29210862
:1012E0002007A2007808043E84000A128A15002014
:1012F0000A128A157705A30003300310A30CFF3EE2
:10130000031D7D2923082207A4007808033E8400DA
:101310000A128A1500200A128A157705A5000430E2
:101320000310A50CFF3E031D902925082407A600E5
:101330007808023E84000A128A1500200A128A15D3
:101340007705A70005300310A70CFF3E031DA32956
:1013500027082607A8007808013E84000A128A158B
:1013600000200A128A157705A90006300310A90C7F
:10137000FF3E031DB62929082807AA007808840023
:101380000A128A15002077050A128A15D22AAB00A4
:1013900007300310AB0CFF3E031DC9292B082A0799
:1013A000AC002C08AF0078080D3E84000A128A15A4
:1013B00000200A128A157705A00001300310A00C46
:1013C000FF3E031DDE2978080C3E84000A128A15B0
:1013D00000200A128A157705A10002300310A10C23
:1013E000FF3E031DEE2921082007A20078080B3ECE
:1013F00084000A128A1500200A128A157705A300B4
:1014000003300310A30CFF3E031D012A230822070B
:10141000A40078080A3E84000A128A1500200A12E5
:101420008A157705A50004300310A50CFF3E031DA7
:10143000142A25082407A6007808093E84000A1209
:101440008A1500200A128A157705A70005300310B7
:10145000A70CFF3E031D272A27082607A8007808A7
:10146000083E84000A128A1500200A128A157705A0
:10147000A90006300310A90CFF3E031D3A2A2908D3
:101480002807AA007808073E84000A128A1500205F
:1014900077050A128A15432983120313A000200836
:1014A000F7007808143E84000A128A1500200A12F8
:1014B0008A157705A00001300310A00DFF3E031D23
:1014C0005C2A7808133E84000A128A1500200A124A
:1014D0008A1577052007A1007808123E84000A12B9
:1014E0008A1500200A128A157705A2000310220C23
:1014F0002107A3007808113E84000A128A150020F3
:101500000A128A157705A40002300310A40CFF3ECE
:10151000031D852A24082307A5007808103E8400AF
:101520000A128A1500200A128A157705A6000330D0
:101530000310A60CFF3E031D982A26082507A700C6
:1015400078080F3E84000A128A1500200A128A15B4
:101550007705A80004300310A80CFF3E031DAB2A3A
:1015600028082707A90078080E3E84000A128A1569
:1015700000200A128A157705AA0005300310AA0C6C
:10158000FF3E031DBE2A2A082907AB002B08AF0027
:1015900078080D3E84000A128A15002077050A1289
:1015A0008A15592BAB0007300310AB0CFF3E031D0F
:1015B000D42A2B082A07AC002C08AD002F08A00065
:1015C000A101A2012008FB002108FC002208FD0067
:1015D0002E08A000A101A2017B08A3007C08A400A2
:1015E0007D08A50008300310A30DA40DA50DFF3E36
:1015F000031DF32A2308A00724080318240F012B36
:10160000022BA10725080318250F072B082BA2077B
:101610002008FB002108FC002208FD002D08A00086
:10162000A101A2017B08A3007C08A4007D08A500FD
:1016300008300310A30DA40DA50DFF3E031D192BAB
:101640002308A00724080318240F272B282BA10701
:1016500025080318250F2D2B2E2BA2072008FB0091
:101660002108FC002208FD007B08F0007C08F10046
:101670007D08F2000A168A11A5270A128A15403041
:1016800083120313A0002008F7007808143E84009A
:101690000A128A1500200A128A157705A000780818
:1016A000133E84000A128A15002077050A128A1553
:1016B000E12BA00001300310A00DFF3E031D5B2BAA
:1016C00078080C3E84000A128A1500200A128A1536
:1016D00077052007A10078080B3E84000A128A15BE
:1016E00000200A128A157705A2000310220C210798
:1016F000A30078080A3E84000A128A1500200A1204
:101700008A157705A40002300310A40CFF3E031DC8
:10171000842B24082307A5007808093E84000A12B8
:101720008A1500200A128A157705A60003300310D7
:10173000A60CFF3E031D972B26082507A700780857
:10174000083E84000A128A1500200A128A157705BD
:10175000A80004300310A80CFF3E031DAA2B280884
:101760002707A9007808073E84000A128A1500207E
:101770000A128A157705AA0005300310AA0CFF3E4D
:10178000031DBD2B2A082907AB002B08AE007808E3
:10179000063E84000A128A1500200A128A1577056F
:1017A000A00001300310A00DFF3E031DD22B7808CE
:1017B000053E84000A128A15002077050A128A1550
:1017C000402FA1000310210C2007A2007808123E30
:1017D00084000A128A1500200A128A157705A300D0
:1017E00002300310A30CFF3E031DF12B2308220738
:1017F000A4007808113E84000A128A1500200A12FB
:101800008A157705A50003300310A50CFF3E031DC4
:10181000042C25082407A6007808103E84000A122C
:101820008A1500200A128A157705A70004300310D4
:10183000A70CFF3E031D172C27082607A8007808D1
:101840000F3E84000A128A1500200A128A157705B5
:10185000A90005300310A90CFF3E031D2A2C2908FE
:101860002807AA0078080E3E84000A128A15002074
:101870000A128A157705AB0006300310AB0CFF3E49
:10188000031D3D2C2B082A07AC002C08AF0078085C
:101890000D3E84000A128A1500200A128A15770567
:1018A000A00078080C3E84000A128A1500200A1253
:1018B0008A157705A1000310210C2007A2007808E3
:1018C0000B3E84000A128A15002077050A128A1539
:1018D0007C2DF8008312031388130630A000A00BA0
:1018E0006F2C00008312031388178030A00020089B
:1018F000F7007808143E84000A128A1500200A12A4
:101900008A157705A00001300310A00CFF3E031DCF
:10191000842C7808133E84000A128A1500200A12CB
:101920008A157705A10002300310A10CFF3E031DAC
:10193000942C21082007A2007808123E84000A1285
:101940008A1500200A128A157705A30003300310B8
:10195000A30CFF3E031DA72C23082207A400780830
:10196000113E84000A128A1500200A128A15770592
:10197000A50004300310A50CFF3E031DBA2C25085A
:101980002407A6007808103E84000A128A15002059
:101990000A128A157705A70005300310A70CFF3E31
:1019A000031DCD2C27082607A80078080F3E8400C9
:1019B0000A128A1500200A128A157705A900063036
:1019C0000310A90CFF3E031DE02C29082807AA00DC
:1019D00078080E3E84000A128A15002077050A1244
:1019E0008A15C729A10021072007A20078080B3E0D
:1019F00084000A128A1500200A128A157705220728
:101A0000A30078080A3E84000A128A1500200A12F0
:101A10008A157705A4000310240C2307A500780875
:101A2000093E84000A128A1500200A128A157705D9
:101A3000A60002300310A60CFF3E031D1A2D260837
:101A40002507A7007808083E84000A128A1500209E
:101A50000A128A157705A80003300310A80CFF3E70
:101A6000031D2D2D28082707A9007808073E8400AC
:101A70000A128A1500200A128A157705AA00043076
:101A80000310AA0CFF3E031D402D2A082907AB00B6
:101A90002B08AE007808063E84000A128A15002042
:101AA0000A128A157705A00002300310A00DFF3E30
:101AB000031D552D7808053E84000A128A15002062
:101AC0000A128A157705A10021072007A2007808CD
:101AD000043E84000A128A1500200A128A1577052E
:101AE0002207A3007808033E84000A128A1500200A
:101AF00077050A128A114528A30002300310A30CAF
:101B0000FF3E031D7E2D23082207A40078080A3E0D
:101B100084000A128A1500200A128A157705A5008A
:101B200003300310A50CFF3E031D912D250824074B
:101B3000A6007808093E84000A128A1500200A12BD
:101B40008A157705A70004300310A70CFF3E031D7C
:101B5000A42D27082607A8007808083E84000A124A
:101B60008A1500200A128A157705A900053003108E
:101B7000A90CFF3E031DB72D29082807AA007808E5
:101B8000073E84000A128A1500200A128A1577057A
:101B9000AB0006300310AB0CFF3E031DCA2D2B0813
:101BA0002A07AC002C08AE007808063E84000A1212
:101BB0008A1500200A128A157705A0007808053ECC
:101BC00084000A128A1500200A128A157705A100DE
:101BD0000310210C2007A2007808043E84000A129A
:101BE0008A1500200A128A157705A3000230031017
:101BF000A30CFF3E031DF72D23082207A40078083D
:101C0000033E84000A128A15002077050A128A15FD
:101C1000992E83120313A0002008F7007808143EC1
:101C200084000A128A1500200A128A157705A0007E
:101C300002300310A00DFF3E031D192E7808133E3D
:101C400084000A128A1500200A128A157705A1005D
:101C500021072007A2007808123E84000A128A1584
:101C600000200A128A1577052207A3007808113E82
:101C700084000A128A1500200A128A157705A4002A
:101C80000310240C2307A5007808103E84000A12D4
:101C90008A1500200A128A157705A6000230031063
:101CA000A60CFF3E031D4F2E26082507A700780827
:101CB0000F3E84000A128A1500200A128A15770541
:101CC000A80003300310A80CFF3E031D622E280855
:101CD0002707A90078080E3E84000A128A15002002
:101CE0000A128A157705AA0004300310AA0CFF3ED9
:101CF000031D752E2A082907AB002B08AF007808B2
:101D00000D3E84000A128A1500200A128A157705F2
:101D1000A00002300310A00DFF3E031D8A2E78089C
:101D20000C3E84000A128A15002077050A128A15D3
:101D3000F22CA50003300310A50CFF3E031D9B2EC3
:101D400025082407A6007808023E84000A128A1596
:101D500000200A128A157705A70004300310A70C8B
:101D6000FF3E031DAE2E27082607A8007808013E77
:101D700084000A128A1500200A128A157705A90024
:101D800005300310A90CFF3E031DC12E29082807AA
:101D9000AA00780884000A128A1500200A128A15FF
:101DA0007705AB0006300310AB0CFF3E031DD32EAE
:101DB0002B082A07AC002C08AD002F08A000A101B9
:101DC000A2012008FB002108FC002208FD002E08CB
:101DD000A000A101A2017B08A3007C08A4007D084B
:101DE000A50008300310A30DA40DA50DFF3E031D93
:101DF000F22E2308A00724080318240F002F012F18
:101E0000A10725080318250F062F072FA207200872
:101E1000FB002108FC002208FD002D08A000A10104
:101E2000A2017B08A3007C08A4007D08A50008305F
:101E30000310A30DA40DA50DFF3E031D182F2308AD
:101E4000A00724080318240F262F272FA1072508F1
:101E50000318250F2C2F2D2FA2072008FB00210887
:101E6000FC002208FD007B08F0007C08F1007D08E2
:101E7000F2000A168A11A52720300A128A154C2A68
:101E80002007A1007808043E84000A128A15002069
:101E90000A128A157705A2000310220C2107A3005D
:101EA0007808033E84000A128A1500200A128A1557
:101EB0007705A40002300310A40CFF3E031D5B2F26
:101EC00024082307A5007808023E84000A128A1518
:101ED00000200A128A157705A60003300310A60C0D
:101EE000FF3E031D6E2F26082507A7007808013E38
:101EF00084000A128A1500200A128A157705A800A4
:101F000004300310A80CFF3E031D812F280827076B
:101F1000A900780884000A128A1500200A128A157E
:101F20007705AA0005300310AA0CFF3E031D932F6E
:101F30002A082907AB002B08AD002F08A000A1013B
:101F4000A2012008FB002108FC002208FD002E0849
:101F5000A000A101A2017B08A3007C08A4007D08C9
:101F6000A50008300310A30DA40DA50DFF3E031D11
:101F7000B22F2308A00724080318240FC02FC12F55
:101F8000A10725080318250FC62FC72FA207200871
:101F9000FB002108FC002208FD002D08A000A10183
:101FA000A2017B08A3007C08A4007D08A5000830DE
:101FB0000310A30DA40DA50DFF3E031DD82F23086C
:101FC000A00724080318240FE62FE72FA1072508F0
:101FD0000318250FEC2FED2FA2072008FB00210886
:101FE000FC002208FD007B08F0007C08F1007D0861
:101FF000F2000A168A11A52710300A128A15092E36
:102F0C000A128A15C0200A168A11FA0100300A1218
:102F1C008A15E5200A168A1101300A128A15E52055
:102F2C000A168A1102300A128A15E5200A168A112D
:102F3C0003300A128A15E5200A168A118C2F1730D5
:102F4C00F3007308F60076080319DA2F7008F30003
:102F5C007108F4007208F500760AB82F0310F50C0E
:102F6C00F40CF30CFF3E031DB42F731CC12F831202
:102F7C0003130816C42F831203130812C52FC62F70
:102F8C0000008312031388160630F300F30BCC2FCA
:102F9C0000008312031388120630F300F30BD42FB6
:102FAC0000000130F602A92F701CE02F83120313CE
:102FBC000816E32F831203130812E42FE52F0000E9
:102FCC008312031388160630F300F30BEB2F00006B
:102FDC00831203138812F22FF32F000083120313B2
:102FEC0008170630F300F30BF92F000083120313BC
:042FFC0008130800AE
:04400E00F4FFFFFFBD
:00000001FF
