:1000000000308A00E3280000A101A201A001A301A1
:100010003208031D0E283108031928281030B300B8
:100020000310AF0DB00DA00DA30D32082302031D68
:100030001B2831082002031C24283108A002031CBD
:10004000A3033208A3020314A10DA20DB30B1028C1
:100050000034AE01A601A501A801A701AA01A901CA
:100060000030A1001F08F33921049F000630A000D2
:10007000A00B382800009F149F183C2883161E08E8
:100080008312A5071E0803181E0FA6072130A00023
:10009000A00B48280830A1001F08F33921049F0055
:1000A0000630A000A00B522800009F149F1856286D
:1000B00083161E088312A7071E0803181E0FA80721
:1000C0002130A000A00B62280430A1001F08F339E2
:1000D00021049F000630A000A00B6C2800009F1494
:1000E0009F18702883161E088312A9071E0803187C
:1000F0001E0FAA072130A000A00B7C28AE0A2E08F4
:10010000093C031830282608B0002508AF00B201CA
:100110002E08B10004202208A6002108A500280806
:10012000B0002708AF00B2012E08B1000420220859
:10013000A8002108A7002A08B0002908AF00B201D2
:100140002E08B10004202208AA002108A9002729AE
:100150000830B202031CB728323084000310800C30
:1001600000080319B728B5280000800BB428003414
:10017000AF01B00183160512831205160230B100DB
:10018000F830B200A820B10BC028831605128312E4
:1001900005120230B100F830B200A820B10BCB2814
:1001A000AF0A0319B00AB008031DDA282F080A3C69
:1001B0000318BA280034AE01B820AE0A2E08013C5C
:1001C0000318DC28442984011F308305713083160D
:1001D0008F000F0883121F1383161F109F101F110B
:1001E0009F110730831299001F1383161F149F1449
:1001F0001F159F111F129F161F1783129F171F1481
:1002000083160108C7390838810083129001003035
:10021000A1009200003083169200073083129900EB
:100220008316050806308312A000A00B15290000D4
:1002300019088C1183169901C03083128B04713018
:1002400083168F000F088312AB01AC012928280800
:10025000013C031C3129031D3B2927089E3C031840
:100260003B292A08013C031C4429031D3B2929087A
:100270009E3C031C44292D08023C03194429AB0A67
:100280002B08093C031CDB282608003C03185529D1
:10029000FF3A031D4F292508F43C031855298316FE
:1002A000851283128516AD017C292608013C031CAA
:1002B0006C29031D5F292508DF3C031C6C29A60857
:1002C000031D66292508143C03186C298316851222
:1002D00083128512AD017C29A608031D7A29250801
:1002E000143C031C7A292D08023C031DB82002305F
:1002F000AD007C290130AD00AD0803199229AC0A8C
:100300002C08323C031D8929831685128312851619
:1003100092292C08643C031D9229AC018316851296
:10032000831285122D08023C031DB2292808003CC7
:100330000318B229FF3A031DA1292708F93C031825
:10034000B2292A08003C0318B229FF3A031DAC2940
:100350002908F93C0318B2298316851283128516E1
:08036000AD01B820262963005D
:02400E00F43C80
:00000001FF
;PIC12F683
